:1000000000308A00792800000030F800063892009D
:10001000FE30831692008312221122088316870075
:10002000831207110C30970083169B019C0101304D
:100030009D0083128A110A129228233084008313B0
:100040000008031930280630F800F701F70B2628BE
:10005000F80B25287B30F700F70B2C28800B232882
:100060000800A101FF30A000A008031D3A28A10844
:10007000031955282108F9002008F800F90CF80C9C
:10008000F90CF80CF90C78089500F90C790C30395A
:10009000F7001708CF39770497000530A3001D201B
:1000A00020080319A103A0033428A101A001A1087D
:1000B000031D78282008FE3C031C78282108F9003D
:1000C0002008F800F90CF80CF90CF80CF90C780879
:1000D0009500F90C790C3039F7001708CF397704FF
:1000E00097000530A3001D20A00A0319A10A572874
:1000F000080003081F398300A101A001FF30A200FE
:10010000831603170908C039890003131F129F12B1
:100110000030031788008312870188018901831347
:100120000313042883160610831206148316861000
:10013000831286108316061183120611312083164E
:1001400006108312061083168610831286148316F7
:100150000611831206113120831606108312061031
:1001600083168610831286108316061183120615D5
:060170003120922863001B
:04400E00E22FFF3F5F
:00000001FF
;PIC16F887
;CRC=A0FB  CREATED="24-feb.-22 14:22"
