:1000000000308A0060280000233084008313000839
:10001000031917280630F800F701F70B0D28F80B25
:100020000C287B30F700F70B1328800B0A280800F8
:10003000A101FF30A000A008031D2128A108031979
:100040003C282108F9002008F800F90CF80CF90CFC
:10005000F80CF90C78089500F90C790C3039F70098
:100060001708CF39770497000530A3000420200833
:100070000319A103A0031B28A101A001A108031DCE
:100080005F282008FE3C031C5F282108F900200897
:10009000F800F90CF80CF90CF80CF90C780895003C
:1000A000F90C790C3039F7001708CF39770497002D
:1000B0000530A3000420A00A0319A10A3E28080065
:1000C00003081F398300A101A001FF30A20083169D
:1000D00003170908C039890003131F129F1200304B
:1000E0000317880083128701880189018313003078
:1000F000F800063803139200FE3083169200831234
:100100002211220883168700831207110C309700F2
:1001100083169B019C0101309D000610831206147A
:100120008316861083128610831606118312061119
:100130001820831606108312061083168610831269
:1001400086148316061183120611182083160610D2
:1001500083120610831686108312861083160611EA
:0C01600083120615182083168D286300FA
:04400E00E22FFF3F5F
:00000001FF
;PIC16F887
;CRC=CF81  CREATED="29-ago.-23 16:50"
