:1000000000308A00732800000030F80006389200A3
:10001000FE30831692008312221122088316870075
:10002000831207110C3097008A110A12842823309A
:1000300084008313000803192A280630F800F7010A
:10004000F70B2028F80B1F287B30F700F70B26282A
:10005000800B1D280800A101FF30A000A008031D8F
:100060003428A10803194F282108F9002008F800B6
:10007000F90CF80CF90CF80CF90C78089500F90C4F
:10008000790C3039F7001708CF397704970005301D
:10009000A300172020080319A103A0032E28A10103
:1000A000A001A108031D72282008FE3C031C722831
:1000B0002108F9002008F800F90CF80CF90CF80CEC
:1000C000F90C78089500F90C790C3039F70017080D
:1000D000CF39770497000530A3001720A00A031931
:1000E000A10A5128080003081F398300A101A001BB
:1000F000FF30A20083161F149F141F159F11073095
:100100009C0083138312042883160610831206149E
:100110008316861083128610831606118312061129
:100120002B20831606108312061083168610831266
:10013000861483160611831206112B2083160610CF
:1001400083120610831686108312861083160611FA
:0A015000831206152B20842863009B
:02400E00723FFF
:00000001FF
;PIC16F877A
;CRC=9972  CREATED="24-feb.-22 14:38"
